:020000040800F2
:1000000060100020A1160008FD160008FD1600086B
:10001000FD160008FD160008FD160008000000008F
:10002000000000000000000000000000FD160008B5
:10003000FD16000800000000FD1600086121000800
:10004000FD160008FD160008FD160008FD16000844
:10005000FD160008FD160008FD160008FD16000834
:10006000FD160008FD160008FD160008FD16000824
:10007000FD160008FD160008FD160008FD16000814
:10008000FD160008FD160008FD160008FD16000804
:10009000FD160008FD160008FD160008FD160008F4
:1000A000FD160008FD160008FD160008FD160008E4
:1000B000FD160008FD160008FD160008FD160008D4
:1000C000FD160008FD160008FD160008FD160008C4
:1000D000FD160008FD160008FD160008FD160008B4
:1000E000FD160008FD160008E1280008FD160008AE
:1000F000FD160008FD160008FD160008FD16000894
:10010000FD160008FD160008FD160008FD16000883
:10011000FD160008FD160008FD160008FD16000873
:10012000FD160008FD160008FD160008FD16000863
:10013000FD160008FD160008FD160008FD16000853
:10014000FD160008FD160008FD1600084D290008E0
:10015000FD160008FD160008FD160008FD16000833
:10016000FD160008FD160008FD160008FD16000823
:10017000FD160008FD160008FD160008FD16000813
:10018000FD160008FD160008FD160008FD16000803
:10019000FD160008FD160008FD160008FD160008F3
:1001A000FD160008FD160008FD16000880B485B095
:1001B00000AF78600023FB607B68DB684FF0FF32A4
:1001C0005A607B68DB686FF080425A61FB7B43F0CA
:1001D0008003FB737B7B43F008037B737B68DB68E6
:1001E000FA689A6100BF1437BD4680BC704700BFF3
:1001F00080B586B000AF78600023FB7400237B617C
:100200000023FB60032002F037FB7B68DB681B697F
:10021000FB607B6901337B617B69184A934201D99A
:10022000002326E0FB68C3F3C073DBB2002BE9D0E8
:1002300000237B61FB6843F00103FB607B68DB68A4
:10024000FA681A617B68DB681B69FB607B690133B4
:100250007B617B69094A934206D8FB68C3F30003BC
:10026000DBB2012BEED000E000BF032002F004FB64
:10027000FB7C18461837BD4680BD00BF400D03000B
:1002800080B489B000AFF860B96011461A460B46D9
:10029000FB711346BB800023FB76FB68DB78002BE9
:1002A00022D100237B610023FB61BB880333002B39
:1002B00000DA03339B107B61FB79FA6832339B00D1
:1002C00013449B683B610023FB6109E0BB681A682B
:1002D0003B691A60FB690133FB61BB680433BB6097
:1002E000FA697B699A42F1D3FB7E18462437BD46F2
:1002F00080BC704780B489B000AFF860B960134625
:10030000FB800023FB61FB880333002B00DA0333FF
:100310009B10BB61FB68D3F8D0307B610023FB618D
:1003200009E07B691A68BB681A60FB690133FB61ED
:10033000BB680433BB60FA69BB699A42F1D3BB68FE
:1003400018462437BD4680BC704700BF80B487B0D4
:1003500000AF78600B46FB7000233B610023FB730A
:100360007B680022DA707B6801229A707B684022E9
:100370009A80FB78012B16D14FF0A0433B617B683C
:100380000122DA727B6808221A707B6804225A7094
:100390007B684FF4A072DA807B6802221A727B6855
:1003A00001229A7211E0FB78002B0ED1444B3B6185
:1003B0007B680022DA727B680C221A707B68062246
:1003C0005A707B684FF4A062DA803A697B68DA6021
:1003D0003B6903F500631A467B681A6100237B6161
:1003E0001CE07B695A013B69134403F5106319460D
:1003F0007A687B6904339B00134499607B695A01D6
:100400003B69134403F5306319467A687B691433FA
:100410009B00134459607B6901337B617B685B7887
:100420001A467B699A42DCD83B6903F580631A4619
:100430007B685A613B6903F588631A467B68C3F899
:10044000CC2000237B610FE07B695A013B69134498
:1004500003F5A06319467A687B6922339B00134435
:1004600099607B6901337B617B681B781A467B69E5
:100470009A42E9D800237B610FE07B691A033B694C
:10048000134403F5805319467A687B6932339B0025
:10049000134499607B6901337B617B681B781A4642
:1004A0007B699A42E9D83B6903F560631A467B6829
:1004B000C3F80C21FB7B18461C37BD4680BC704737
:1004C0000000044080B586B000AF78600023FB7563
:1004D00000233B610023FB600023BB607B681B7A29
:1004E000012B42D17B68DB689B6BFB60BB7B6FF3AE
:1004F0000003BB737B685B7A002B03D0BB7B43F0AC
:100500001003BB737B68DB68FA689A6300233B6166
:100510007B68DB68DB683B613B7C6FF386133B7475
:10052000BB7C6FF38613BB74BB7C6FF34103BB745E
:10053000BB7C6FF3C303BB747B68DB683A69DA602A
:100540007868FFF755FE7B68DB78012B39D13B7A61
:10055000052262F344033B723B7A43F020033B7273
:100560007B68DB68BA689A602BE07B68DB68DB68D5
:100570003B613B7C43F040033B747B68DB683A693A
:10058000DA607868FFF734FE0023FB60BB7B43F042
:100590000103BB73BB7B43F00403BB73BB7B43F022
:1005A0000803BB737B685B7A002B03D0BB7B43F0F3
:1005B0001003BB737B68DB68FA689A63142002F04F
:1005C0007FF97B68DB78012B10D17B68DB689B6847
:1005D000BB603B7A052262F344033B723B7A43F0F3
:1005E00020033B727B68DB68BA689A60FB7D184623
:1005F0001837BD4680BD00BF80B485B000AF7860BD
:100600000023FB730023BB603B7A43F001033B7282
:100610007B68DB687A68D2689168BA680A439A6036
:10062000FB7B18461437BD4680BC704780B485B04C
:1006300000AF78600023FB730023BB603B7A43F07C
:1006400001033B727B68DB687A68D2689168BA689C
:10065000D2430A409A60FB7B18461437BD4680BCE3
:10066000704700BF80B586B000AF78603960002366
:10067000FB7400237B610023FB60FB6843F02003D5
:10068000FB603B68DBB203F01F03DAB2FB6862F386
:100690008A13FB607B68DB68FA681A617B68DB6839
:1006A0001B69FB607B6901337B617B69094A93426B
:1006B00006D8FB68C3F34013DBB2012BEED000E099
:1006C00000BF032002F0D8F8FB7C18461837BD465F
:1006D00080BD00BF400D030080B586B000AF7860DC
:1006E0000023FB7400237B610023FB60FB6843F065
:1006F0001003FB607B68DB68FA681A617B68DB6863
:100700001B69FB607B6901337B617B69094A93420A
:1007100006D8FB68C3F30013DBB2012BEED000E078
:1007200000BF032002F0A8F8FB7C18461837BD462E
:1007300080BD00BF400D030080B584B000AF78607D
:100740000B46FB700023FB737B68DB68DB68BB60D8
:10075000FB7A6FF34513FB72FB7A6FF38613FB7220
:10076000FB78012B04D1FB7A43F02003FB7206E0F7
:10077000FB78002B03D1FB7A43F04003FB727B68CC
:10078000DB68BA68DA60322002F09AF8FB7B184620
:100790001037BD4680BD00BF80B483B000AF786025
:1007A0007B68DB685B6903F0010318460C37BD46C4
:1007B00080BC704780B582B000AF78607868FFF782
:1007C000EBFF0346012B14BF01230023DBB21846C5
:1007D0000837BD4680BD00BF80B485B000AF7860EB
:1007E0000023FB607B68DB685B69FB607B68DB6820
:1007F0009B69FA681340FB60FB6818461437BD46D6
:1008000080BC704780B485B000AF78600B46FB7049
:100810007B681B691B68FB60FB7803F00303DAB29B
:100820003B7B62F301033B737B681B69FA681A60C8
:1008300000BF1437BD4680BC704700BF80B58CB088
:1008400000AF7860002387F82B3000237B62002301
:100850003B620023FB610023BB6100237B617B685B
:10086000D3F80C3100221A607B681B691B683B625D
:1008700097F821306FF3C40387F821307B681B6938
:100880003A6A1A607B68DB7A012B33D103217868DE
:10089000FFF7B8FF7B68DB6880225A624023FB8346
:1008A0008023BB837B68DB68FA699A62BA8BFB8B17
:1008B00013449BB23B8380237B837B68DB68BA69EC
:1008C000C3F804213A8B7B8B13449BB23B830023F8
:1008D0007B837B68DB68BA69C3F808213A8B7B8B22
:1008E00013449BB23B8300237B837B68DB68BA693C
:1008F000C3F80C2110217868FFF7B4FE7868FFF781
:10090000EBFE7B681B6900221A617B681B69002271
:100910005A617B681B694FF0FF329A617B681B69E3
:100920000022DA610023FB623AE07A68FB6A043352
:100930009B0013449B681B687B6297F8273023F069
:100940007F03DBB2002B0ED000237B6297F82730A9
:1009500043F0400387F8273097F8273043F0080327
:1009600087F8273001E000237B627A68FB6A043352
:100970009B0013449B687A6A1A607A68FB6A0433A6
:100980009B0013449B6800221A617A68FB6A043357
:100990009B0013449B68FF229A60FB6A0133FB6251
:1009A0007B685B781A46FB6A9A42BED80023FB62DA
:1009B00035E07A68FB6A14339B0013445B681B685C
:1009C000FB60FB7B23F07F03DBB2002B0AD000230C
:1009D000FB60FB7B43F04003FB73FB7B43F00803AE
:1009E000FB7301E00023FB607A68FB6A14339B0011
:1009F00013445B68FA681A607A68FB6A14339B00D8
:100A000013445B6800221A617A68FB6A14339B0006
:100A100013445B68FF229A60FB6A0133FB627B68C8
:100A20005B781A46FB6A9A42C3D800237B617B7DC0
:100A300043F001037B757B681B697A681269116951
:100A40007A69D24311407A690A431A617B68DB787C
:100A5000012B1BD100233B613B7C43F001033B7422
:100A60003B7C43F002033B743B8A402262F38A03DF
:100A70003B82BB7C43F00103BB747B8A402262F360
:100A800049037B827B681B693A691A63786800F0C6
:100A900007F897F82B3018463037BD4680BD00BFA9
:100AA00080B584B000AF78600023FB730023BB6087
:100AB0007B68DB6800229A617B68DB686FF08042AC
:100AC0005A617868FFF772FB7B68DB78002B03D1F3
:100AD0003B7A43F010033B727B7A43F008037B724E
:100AE0007B7A43F010037B727B7A43F020037B72A6
:100AF000BB7A43F00403BB72BB7A43F00803BB72BA
:100B00003B7A43F008033B72BB7A43F01003BB729D
:100B1000BB7A43F02003BB72FB7A43F04003FB72C5
:100B20003B7A43F004033B727B68DB687A68D268E7
:100B30009169BA68D2431140BA680A439A61FB7B53
:100B400018461037BD4680BD80B485B000AF7860D0
:100B50000023FB737B681B699B68BB603B7AC3F314
:100B60004103DBB2022B09D0032B04D0012B02D0AE
:100B70000323FB7305E00223FB7302E00123FB73F5
:100B800000BFFB7B18461437BD4680BC704700BFD2
:100B900080B487B000AF78600023FB750023BB6092
:100BA0007B681B699B683B617B689B691B68FB607A
:100BB0003B7CC3F34103DBB2022B04D0BB896FF350
:100BC0000A03BB8105E0BB89032262F30A03BB81F0
:100BD00000BF7B689B69FA681A607B7A43F0010367
:100BE0007B727B681B697A6812695168BA68D24364
:100BF0001140BA680A435A60FB7D18461C37BD464F
:100C000080BC704780B487B000AF78603960002343
:100C1000FB740023FB600023BB603B685B78012B07
:100C20000FD13B681B787A6804339B0013449B68A0
:100C30007B613B681B781A46012393409BB23B8142
:100C40000EE03B681B787A6814339B0013445B68A2
:100C50007B613B681B781A46012393409BB27B81E2
:100C60007B691B68FB607B7B23F07F03DBB2002B7F
:100C700027D13B689B689BB2C3F30A039AB2BB8936
:100C800062F30A03BB813B68DB7803F00303DAB24B
:100C9000BB7B62F38303BB733B68DB88DBB203F08F
:100CA0000F03DAB2FB8962F38913FB81FB7B43F00C
:100CB0001003FB737B7B43F080037B73FA687B69D3
:100CC0001A607B681B697A681269D169BA680A433D
:100CD000DA61FB7C18461C37BD4680BC704700BFFC
:100CE00080B487B000AF786039600023FB740023C4
:100CF000FB600023BB603B685B78012B0FD13B6836
:100D00001B787A6804339B0013449B687B613B68C3
:100D10001B781A46012393409BB23B810EE03B684F
:100D20001B787A6814339B0013445B687B613B68D3
:100D30001B781A46012393409BB27B817B7B6FF328
:100D4000C7137B73FA687B691A607B681B697A68D2
:100D50001269D169BA68D2430A40DA61FB7C18464D
:100D60001C37BD4680BC704780B588B000AF786046
:100D700039600023FB770023BB6100237B610023E4
:100D80003B613B685B78012B40F0AB803B681B7894
:100D90007A6804339B0013449B681B687B613B6843
:100DA0001B787A6804339B0013449B681B693B6182
:100DB0003B685B69002B09D13B696FF312033B6110
:100DC0007B8A012262F3CC037B8222E03B685B6971
:100DD000C3F312023B6962F312033B613B685A6939
:100DE0003B689B6813445A1E3B689B68B2FBF3F355
:100DF0009BB2C3F309039AB27B8A62F3CC037B8272
:100E00003B68DB78012B04D1FB7C012262F34613A3
:100E1000FB743B681B787A6804339B0013449B681F
:100E20003A691A617B68DB78012B0AD13B681B7831
:100E30007A6804339B0013449B683A6812695A61CC
:100E400015E03B68DB78012B11D03B685B69002B18
:100E50000DD03B681B781A4601239340BB617B6829
:100E60001B697A681269516BBA690A435A633B6815
:100E7000DB78012B14D17B681B699B68FB60FB68E6
:100E8000C3F30D239BB203F00103002B04D1FB7DC0
:100E900043F02003FB7503E0FB7D43F01003FB757B
:100EA000FB7D43F00403FB75FB7D43F08003FB7582
:100EB0003B681B787A6804339B0013449B687A690B
:100EC0001A603B68DB78012B40F089803B68D96869
:100ED0003B681A783B685B699BB27868FFF7D0F98A
:100EE0007DE03B681B787A6814339B0013445B6891
:100EF0001B687B613B681B787A6814339B00134442
:100F00005B681B693B613B685B69002B0DD13B68EB
:100F10009B68C3F312023B6962F312033B617B8A55
:100F2000012262F3CC037B8220E03B685A693B6874
:100F30009B6813445A1E3B689B68B2FBF3F39BB259
:100F4000C3F309039AB27B8A62F3CC037B827B8A68
:100F5000C3F3C9039BB21A463B689B6803FB02F3C9
:100F6000C3F312023B6962F312033B613B681B78D7
:100F70007A6814339B0013445B683A691A617B6892
:100F8000DB78012B09D13B681B787A6814339B000E
:100F900013445B683A6812695A613B68DB78012B3D
:100FA0000CD13B685B79002B04D0FB7D43F0200320
:100FB000FB7503E0FB7D43F01003FB75FB7D43F005
:100FC0000403FB75FB7D43F08003FB753B681B78D6
:100FD0007A6814339B0013445B687A691A60FB7F5C
:100FE00018462037BD4680BD80B489B000AF786018
:100FF00039600023FB770023BB6100233B610023A2
:10100000BB603B685B78012B70D17B689B697B611F
:101010007B691B683B617B691B69BB603B685B69E3
:10102000002B09D13B7A6FF306033B72BB7A012296
:1010300062F3C403BB7223E03B685A693B689B6858
:101040009A420ED93B689A683B685A613B689B6834
:10105000DBB203F07F03DAB23B7A62F306033B7242
:1010600009E03B685B69DBB203F07F03DAB23B7AED
:1010700062F306033B72BB7A012262F3C403BB72C4
:10108000BA687B691A617B68DB78012B09D13B6800
:101090001B787A6804339B0013449B683A68126992
:1010A0005A61FB7C43F00403FB74FB7C43F0800338
:1010B000FB743A697B691A607B68DB78002B76D118
:1010C0003B685B69002B72D03B681B781A46012392
:1010D00093401A46BB691343BB617B681B697A68FE
:1010E0001269516BBA690A435A6360E03B681B7826
:1010F0007A6814339B0013445B681B683B613B6850
:101100001B787A6814339B0013445B681B69BB60CF
:101110003B685B69002B0FD13B689B68DBB203F037
:101120007F03DAB23B7A62F306033B72BB7A012299
:1011300062F3C403BB7212E03B689A683B685A6171
:101140003B689B68DBB203F07F03DAB23B7A62F361
:1011500006033B72BB7A012262F3C403BB723B6895
:101160001B787A6814339B0013445B68BA681A6171
:101170007B68DB78012B09D13B681B787A681433D4
:101180009B0013445B683A6812695A61FB7C43F028
:101190000403FB74FB7C43F08003FB743B681B7807
:1011A0007A6814339B0013445B683A691A60FB7FCA
:1011B00018462437BD4680BC704700BF80B487B056
:1011C00000AF786039600023FB750023FB603B684B
:1011D0005B78012B1CD13B681B787A6804339B0039
:1011E00013449B683B613B691B68FB60FB7B23F0FE
:1011F0007F03DBB2002B03D0FB7B43F04003FB7388
:10120000BB7B43F02003BB73FA683B691A6011E0B3
:101210003B681B787A6814339B0013445B683B611E
:101220003B691B68FB60BB7B43F02003BB73FA6820
:101230003B691A60FB7D18461C37BD4680BC704771
:1012400080B487B000AF786039600023FB7400235E
:10125000FB603B685B78012B08D13B681B787A68A0
:1012600004339B0013449B687B6107E03B681B7859
:101270007A6814339B0013445B687B617B691B684D
:10128000FB60BB7B6FF34513BB733B68DB78032BC1
:1012900003D03B68DB78022B03D1FB7B43F01003C8
:1012A000FB73FA687B691A60FB7C18461C37BD46E5
:1012B00080BC704780B485B000AF78607B681B69E4
:1012C0009B69FB607B681B69DB69FA681340FB6004
:1012D000FB681B0C18461437BD4680BC704700BF26
:1012E00080B485B000AF78600B46FB70FB787A68FD
:1012F00014339B0013445B689B68FB607B681B692D
:101300005B69FA681340FB60FB6818461437BD46FA
:1013100080BC704780B485B000AF78607B681B6983
:101320009B69FB607B681B69DB69FA681340FB60A3
:10133000FB689BB218461437BD4680BC704700BF9F
:1013400080B487B000AF786000233B61FB7C43F042
:10135000C003FB74BB7C012262F3C403BB743B7CFF
:10136000182262F306033B747B685B6D3A691A616D
:101370007B68DB78012B16D10023FB607B685B6DFB
:101380007A6802F2CC525A617B685B6D1B68FB6025
:10139000FB7B43F08003FB734FF08023FB607B6893
:1013A0005B6DFA681A6000BF1C37BD4680BC704791
:1013B00080B485B000AF78607B689B7A002B1BD02F
:1013C0007B681B699B68FB603B7B03F00103DBB21E
:1013D000002B11D07B6803F586731B68BB603B7ADA
:1013E0006FF341033B723B7A6FF300033B727B6800
:1013F000D3F80C31BA681A6000BF1437BD4680BC00
:10140000704700BF80B582B002AF084B0093084B15
:10141000084A0121084800F075FA084B02221A70A8
:10142000064B1B781846BD4680BD00BF000000205B
:101430001C000020640100201C020020BC010020D0
:1014400080B400AF024B1B781846BD4680BC704785
:10145000BC01002080B483B000AF78607B680022BC
:101460001A707B6800225A707B6800229A707B6831
:101470000022DA707B6800221A717B6800225A71A0
:101480007B6800229A717B680022DA717B680022F7
:101490001A727B6800225A727B6800229A727B68FB
:1014A0000022DA727B6800221A737B6800225A736A
:1014B000034B1B7818460C37BD4680BC704700BFF5
:1014C000BC01002080B586B000AF786007F10C0346
:1014D00000221A605A601A723A4B1B78012B01D015
:1014E00002236BE001233B7300237B737A7B7B68D1
:1014F0001B781343DBB27B737B7BDAB27B689B7810
:101500005B00DBB21343DBB2DBB27B737B7BDAB213
:101510007B685B789B00DBB21343DBB2DBB27B738F
:101520007B7BDAB27B68DB78DB00DBB21343DBB2B8
:10153000DBB27B737B7BDAB27B681B791B01DBB28E
:101540001343DBB2DBB27B737B7BDAB27B689B79C4
:101550005B01DBB21343DBB2DBB27B737B7BDAB2C2
:101560007B685B799B01DBB21343DBB2DBB27B733D
:101570007B7BDAB27B68DB79DB01DBB21343DBB266
:10158000DBB27B730023BB737B681B7AFB737B68C6
:101590005B7A3B747B689B7A7B747B68DB7ABB7479
:1015A0007B681B7BFB747B685B7B3B7507F10C03E3
:1015B00009221946044800F06BF901231846183730
:1015C000BD4680BDBC0100201C02002080B400AFDD
:1015D000034B02221A7000BFBD4680BC704700BF9B
:1015E000BC01002080B483B000AF0346FB71044B04
:1015F00002221A7000BF0C37BD4680BC704700BF86
:10160000BC01002080B400AF034B01221A7000BF60
:10161000BD4680BC704700BFBC01002080B400AF55
:10162000034B02221A7000BFBD4680BC704700BF4A
:10163000BC01002080B400AF034B02221A7000BF2F
:10164000BD4680BC704700BFBC01002080B400AF25
:10165000034B02221A7000BFBD4680BC704700BF1A
:10166000BC01002080B400AF034B02221A7000BFFF
:10167000BD4680BC704700BFBC01002080B582B071
:1016800002AF0023019302230093002300220121D3
:10169000024802F079FF00BFBD4680BD0000024055
:1016A00080B582B000AF104B7B60104B3B6007E011
:1016B0003B681A1D3A607A68111D796012681A60D9
:1016C0003B680B4A9342F3D30A480B494FF00002A0
:1016D0008842B8BF40F8042BFADB00F07BFB00BF68
:1016E0000837BD4680BD00BF9A4B000800000020AF
:1016F000BC010020BC0100205C08002080B400AFC9
:10170000FEE700BF80B582B000AF78600B46FB708B
:10171000032304228121786802F078FD0323042248
:101720000121786802F072FD002318460837BD4693
:1017300080BD00BF80B582B000AF78600B46FB7003
:101740008121786802F0B8FD0121786802F0B4FDCB
:10175000002318460837BD4680BD00BF80B584B061
:1017600000AF786039600023FB810023BB603B68D9
:101770001B7803F06003002B41D0202B78D13B680D
:101780005B78023B092B33D801A252F823F000BF4B
:10179000E5170008C7170008F1170008F11700083F
:1017A000F1170008F1170008F1170008F1170008F9
:1017B000D3170008B91700083B685B88DBB21A46EC
:1017C0002E4B1A601AE001222C49786803F026F9A2
:1017D00014E03B685B881B0A9BB2DBB21A46284BBD
:1017E0001A600BE001222649786803F017F905E03A
:1017F0003968786801F0D2FC02233AE038E03B68AF
:101800005B780A2B27D00B2B2BD0062B30D13B68D3
:101810005B881B0A9BB2222B08D13B68DB88C52B57
:1018200028BFC523FB81174BBB600DE03B685B887D
:101830001B0A9BB2212B07D1134BBB603B68DB8893
:10184000092B28BF0923FB81FB891A46B9687868F0
:1018500003F0E4F80CE001220C49786803F0DEF8AC
:1018600006E03B685B88DBB21A46084B1A6000BF93
:10187000002318461037BD4680BD00BFC4010020BC
:10188000C80100206C0000205A000020C001002088
:1018900080B584B000AFF860B9601346FB80FB6888
:1018A00093F81231032B05D1FB88BA688121F868BF
:1018B00002F07EFD002318461037BD4680BD00BFF4
:1018C00080B483B000AF03463960FB713B682222CD
:1018D0001A80034B18460C37BD4680BC704700BFCA
:1018E0004800002080B582B000AF78600B46FB70E6
:1018F0008121786802F010FE002318460837BD46A3
:1019000080BD00BF80B584B000AFF8607A603B60F6
:101910000B46FB72F86800F011FFF86800F01EF843
:10192000FB683A68C3F8E425FB68BA69C3F8E825A0
:10193000FB687A68C3F8EC25FB7A1946F86802F070
:10194000E1FBFB68D3F8E8351B689847F86800F0BE
:1019500079FF00BF1037BD4680BD00BF80B483B0A3
:1019600000AF7860002318460C37BD4680BC704736
:1019700080B584B000AF786007F108031946786835
:1019800001F0C4FB3B7A03F01F03012B0AD0022BAA
:101990000FD0002B14D107F108031946786800F026
:1019A000DFFF16E007F108031946786801F028F810
:1019B0000FE007F108031946786801F055F808E0D0
:1019C0003B7A23F07F03DBB21946786802F02CFDE6
:1019D00000BF002318461037BD4680BD80B584B0D7
:1019E00000AF78600B46FB70FB78002B44D17B681E
:1019F00003F55D73FB607B6893F81131032B4ED1C7
:101A0000FB68DA69FB689B689A4220D9FB68DA694F
:101A1000FB689B68D21AFB68DA617B68DB78012B74
:101A200006D1FB68DA68FB689B681A44FB68DA60D9
:101A3000FB68D968FB689A68FB68DB69934228BF3A
:101A400013469BB21A46786803F01CF827E07B68BF
:101A5000D3F8E4351B69002B0AD07B6893F8123168
:101A6000032B05D17B68D3F8E4351B697868984768
:101A7000786803F01BF812E07B68D3F8E4359B69C3
:101A8000002B0CD07B6893F81231032B07D17B68B5
:101A9000D3F8E4359B69FA781146786898470023B3
:101AA00018461037BD4680BD80B584B000AF786061
:101AB0000B46FB70FB78002B6BD17B6803F58E73B4
:101AC000FB607B6893F81131022B55D1FB68DA6912
:101AD000FB689B689A421BD9FB68DA69FB689B68C4
:101AE000D21AFB68DA617B68DB78012B06D1FB68D0
:101AF000DA68FB689B681A44FB68DA60FB68D9689F
:101B0000FB68DB699BB21A46786802F0A7FF33E0F6
:101B1000FB681B6AFA689268B3FBF2F102FB01F200
:101B20009B1A002B14D1FB681A6AFB689B689A42C7
:101B30000ED3FB681A6AFB685B6A9A4208D20022DD
:101B40000021786802F08AFFFB6800225A6213E0E5
:101B50007B68D3F8E435DB68002B0AD07B6893F808
:101B60001231032B05D17B68D3F8E435DB68786844
:101B70009847786802F0B2FF7B6893F81631012B22
:101B80001AD1786800F01EF87B68002283F81621CD
:101B900012E07B68D3F8E4355B69002B0CD07B68DE
:101BA00093F81231032B07D17B68D3F8E4355B69D6
:101BB000FA78114678689847002318461037BD46D2
:101BC00080BD00BF80B483B000AF78607B681B69C4
:101BD000044A12685A60002318460C37BD4680BC80
:101BE000704700BF1008002080B582B000AF786059
:101BF000002340220021786802F008FB00234022E5
:101C00008021786802F002FB7B68012283F81221B0
:101C10007B68D3F8E8355B687A6892781046984715
:101C2000002318460837BD4680BD00BF80B582B08E
:101C300000AF78607B68D3F8E8351B6998477B680C
:101C400093F813217B6883F812217B68032283F8C1
:101C50001221002318460837BD4680BD80B582B0EA
:101C600000AF78607B6893F812217B6883F81321BA
:101C70007B68042283F812217B68D3F8E835DB689F
:101C80009847002318460837BD4680BD80B582B00E
:101C900000AF78607B68D3F8E435DB69002B05D0B2
:101CA0007B68D3F8E435DB697868984700231846E9
:101CB0000837BD4680BD00BF80B582B000AF7860F8
:101CC0000B46FB707B68D3F8E4351B68FA78114645
:101CD000786898477B68D3F8E8359B689847002375
:101CE00018460837BD4680BD80B582B000AF786029
:101CF0000B46FB707B68D3F8E4355B68FA781146D5
:101D000078689847002318460837BD4680BD00BF55
:101D100080B582B000AF78607B68D3F8E4351B6A89
:101D200078689847002318460837BD4680BD00BF35
:101D300080B582B000AF78607B68D3F8E4355B6A29
:101D400078689847002318460837BD4680BD00BF15
:101D500080B582B000AF78607B68D3F8E8355B6906
:101D600098477B68012283F815210023184608371D
:101D7000BD4680BD80B582B000AF78607B68D3F887
:101D8000E8359B6998477B68D3F8E4355B680021A8
:101D9000786898477B68002283F81521002318464D
:101DA0000837BD4680BD00BF80B582B000AF40237C
:101DB0003B7000237B700723BB700023FB70002364
:101DC0003B713B46184602F0B3FC00BF0837BD46E6
:101DD00080BD00BF80B584B000AF00F007FCFFF706
:101DE000E3FF294B4FF4C0421A83FFF747FC00F092
:101DF0002FFAFFF707FB0023FB733B461846FFF75C
:101E000029FB214B4FF4C0421A83FFF719FB03460D
:101E1000012B33D11C4B4FF480421A83012229211C
:101E20001A4802F0DBFC194B1B785BB213F11E0F52
:101E300006DA50233B723B461846FFF743FBE0E7C8
:101E4000124B1B785BB21E2B06DD4F233B723B46C9
:101E50001846FFF737FBD4E70C4B1B785BB213F146
:101E6000320FCEDB094B1B785BB2322BC9DC00236F
:101E70003B723B461846FFF725FBC2E7024B4FF487
:101E800000525A83BDE700BF001802401508002029
:101E900080B483B000AF0346FB71054B00221A707B
:101EA000034AFB79137000BF0C37BD4680BC7047F6
:101EB0000238024080B483B000AF0346FB71044A8D
:101EC000FB79136000BF0C37BD4680BC704700BF74
:101ED0006000474280B485B000AF78600023FB60AB
:101EE000094B9B68FB60FB6823F00303FB60FA6807
:101EF0007B681343FB60044AFB68936000BF1437A0
:101F0000BD4680BC704700BF0038024080B400AFBF
:101F1000044B9B68DBB203F00C03DBB21846BD46F2
:101F200080BC70470038024080B483B000AF786056
:101F30000B46FB70FB78002B06D00949084B1A6B47
:101F40007B6813430B6306E00549054B1A6B7B68FE
:101F5000DB4313400B6300BF0C37BD4680BC7047AA
:101F60000038024080B483B000AF78600B46FB704D
:101F7000FB78002B06D00949084B5A6B7B6813434A
:101F80004B6306E00549054B5A6B7B68DB43134006
:101F90004B6300BF0C37BD4680BC70470038024021
:101FA00080B483B000AF78600B46FB70FB78002BE9
:101FB00006D00949084B5A6C7B6813434B6406E012
:101FC0000549054B5A6C7B68DB4313404B6400BFEB
:101FD0000C37BD4680BC70470038024080B483B0E7
:101FE00000AF78600B46FB70FB78002B06D00949E8
:101FF000084B1A6A7B6813430B6206E00549054BE0
:102000001A6A7B68DB4313400B6200BF0C37BD4686
:1020100080BC70470038024080B483B000AF786065
:102020000B46FB70FB78002B06D00949084B5A6A17
:102030007B6813434B6206E00549054B5A6A7B688F
:10204000DB4313404B6200BF0C37BD4680BC70477A
:102050000038024080B487B000AF0346FB71002314
:10206000FB6000237B610023FB74FB795B09DBB21F
:10207000FB60FB68012B03D1124B1B687B6109E0FD
:10208000FB68022B03D10F4B1B6F7B6102E00D4BF2
:102090005B6F7B61FB7903F01F03FB607A69FB6870
:1020A00022FA03F303F00103002B02D00123FB7497
:1020B00001E00023FB74FB7C18461C37BD4680BC46
:1020C000704700BF0038024080B483B000AF0346C1
:1020D0003960FB7197F90730002B0BDA0D49FB795A
:1020E00003F00F03043B3A68D2B21201D2B20B44A0
:1020F0001A7609E0084997F907303A68D2B2120116
:10210000D2B20B4483F8002300BF0C37BD4680BC1D
:10211000704700BF00ED00E000E100E080B582B054
:1021200000AF78607B68013BB3F1807F01D301236E
:102130000FE00A4A7B68013B53600F214FF0FF30EC
:10214000FFF7C2FF054B00229A60044B07221A607A
:10215000002318460837BD4680BD00BF10E000E0F0
:1021600080B582B000AF374B1B680133354A13602E
:10217000354B1B68002B04D0334B1B68013B324AA4
:102180001360AFF300800023FB7152E0FB792F4A0C
:102190009B0013445B68002B48D0FB792B4A9B00C3
:1021A00013445B681B7B002B40D0FB79274A9B00C4
:1021B00013445B689B68002B38D0FB79234A9B0053
:1021C00013445B689A68013A9A60FB791F4A9B0046
:1021D00013445B689B68002B28D1FB791B4A9B004A
:1021E00013445B681A69FB7918499B000B445B68D0
:1021F0005B6918469047FB79144A9B0013445A6860
:10220000FB7912499B000B445B681B689360FB7968
:102210000E4A9B0013445B685B68002B06D1FB7978
:102220000A4A9B0013445B6800221A73FB7901334E
:10223000FB71064B1B78FA799A42A7D300BF083787
:10224000BD4680BDD0010020D4010020DC0100206B
:1022500080B500AF0D4B1B680D4AA2FB03239B0901
:102260001846FFF75BFF0346002B00D0FEE7074B45
:102270001B689B09074AA2FB03239B0A064A1360BB
:10228000064B01221A7000BF80BD00BFA4010020D0
:10229000D34D62101791650218080020D801002064
:1022A00080B483B000AF03463960FB713B681222F3
:1022B0001A80034B18460C37BD4680BC704700BFE0
:1022C0008001002080B483B000AF03463960FB7109
:1022D0003B6804221A80034B18460C37BD4680BC6D
:1022E000704700BFA001002080B582B000AF034658
:1022F0003960FB71FB79002B05D13A680749084822
:1023000000F060FF04E03A680449064800F05AFF14
:10231000024B18460837BD4680BD00BF1C08002090
:102320000C4B00082C4B000880B582B000AF034670
:102330003960FB713A680449044800F043FF024BDE
:1023400018460837BD4680BD1C0800204C4B0008CD
:1023500080B582B000AF03463960FB71FB79002B7A
:1023600005D13A680749084800F02CFF04E03A68B4
:102370000449064800F026FF024B18460837BD46C0
:1023800080BD00BF1C080020604B0008704B000897
:1023900080B582B000AF03463960FB71FB79002B3A
:1023A00005D13A680749084800F00CFF04E03A6894
:1023B0000449054800F006FF024B18460837BD46A1
:1023C00080BD00BF1C080020804B000880B582B093
:1023D00000AF03463960FB71FB79002B05D13A68E9
:1023E0000749084800F0EEFE04E03A680449054851
:1023F00000F0E8FE024B18460837BD4680BD00BF1E
:102400001C0800208C4B000880B487B000AF7860B7
:10241000396000237B6100233B610023FB600023C4
:102420007B6176E001227B6902FA03F33B613B6842
:102430001A683B691340FB60FA683B699A4265D1B0
:102440007B681A687B695B00032101FA03F3DB43B5
:102450001A407B681A607B681A683B681B791946CA
:102460007B695B0001FA03F31A437B681A603B68DF
:102470001B79012B03D03B681B79022B2ED17B6883
:102480009A687B695B00032101FA03F3DB431A407E
:102490007B689A607B689A683B685B7919467B69C0
:1024A0005B0001FA03F31A437B689A607B685A6801
:1024B0007B699BB2012101FA03F3DB431A407B687D
:1024C0005A607B685A683B689B7919467B699BB266
:1024D00001FA03F39BB21A437B685A607B68DA689F
:1024E0007B699BB25B00032101FA03F3DB431A40D3
:1024F0007B68DA607B68DA683B68DB7919467B6960
:102500005B0001FA03F31A437B68DA607B690133ED
:102510007B617B690F2B85D900BF1C37BD4680BC12
:10252000704700BF80B483B000AF78600B467B80FB
:102530007B687A881A8300BF0C37BD4680BC704721
:1025400080B483B000AF78600B467B807B687A886C
:102550005A8300BF0C37BD4680BC704780B485B03D
:1025600000AF78600B467B8013467B700023FB60D6
:102570000023BB607A787B8803F007039B0002FA94
:1025800003F3FB607B88DB089BB218467B88DB0883
:102590009BB21A467B68083253F822207B8803F0EE
:1025A00007039B000F2101FA03F3DB4302EA030157
:1025B0007B6800F1080243F822107B88DB089BB29D
:1025C0001A467B68083253F82220FB681343BB602D
:1025D0007B88DB089BB21A467B680832B96843F8EF
:1025E000221000BF1437BD4680BC704780B500AFD5
:1025F000124A124B1B6843F0010313600F4B002279
:102600009A600E4A0D4B1B6823F0847323F48033C9
:1026100013600A4B0A4A5A60084A084B1B6823F4A5
:1026200080231360054B0022DA6000F00DF8054BA3
:102630004FF000629A6000BF80BD00BF00380240CA
:102640001030002400ED00E080B483B000AF002320
:102650007B6000233B60354A344B1B6843F4803376
:102660001360324B1B6803F400333B607B6801331B
:102670007B603B68002B03D17B68B3F5A04FF0D1A2
:102680002A4B1B6803F40033002B02D001233B606C
:1026900001E000233B603B68012B42D1234A234BDE
:1026A0001B6C43F080531364214A214B1B6843F495
:1026B000404313601D4A1D4B9B6893601B4A1B4B94
:1026C0009B6843F400439360184A184B9B6843F49B
:1026D000A0539360154B174A5A60144A134B1B685A
:1026E00043F08073136000BF104B1B6803F000734E
:1026F000002BF9D0104B40F205621A600B4A0B4BCD
:102700009B6823F003039360084A084B9B6843F0DF
:102710000203936000BF054B9B6803F00C03082B7A
:10272000F9D100BF0C37BD4680BC7047003802406D
:102730000070004008544007003C024080B588B05B
:1027400000AF786001210120FFF7EEFB4FF4C0538A
:10275000BB6103237B7702233B770023BB770023F6
:10276000FB7707F1180319463548FFF74DFE0A229B
:102770000B213348FFF7F2FE0A220C213048FFF705
:10278000EDFE4FF40073BB6103237B7700233B779F
:102790000123BB770023FB7707F11803194628486C
:1027A000FFF732FE4FF48063BB610123BB77012347
:1027B000FB7703237B7707F1180319462048FFF7BF
:1027C00023FE0A220A211E48FFF7C8FE01214FF40A
:1027D0008040FFF7E5FB01218020FFF7C3FB0121CB
:1027E0004FF08050FFF7FAFB4FF4802001F00AFC15
:1027F0004FF480233B6100233B7508237B75012345
:10280000BB7507F11003184601F08AFB4FF48020D6
:1028100001F0F8FB2A233B7301237B730423BB7372
:102820000123FB7307F10C03184601F00BFC4FF476
:10283000802001F0E7FB00BF2037BD4680BD00BF10
:102840000000024080B584B000AF78604FF4C060F3
:1028500001F0E6FB43233B7301237B730323BB732C
:102860000123FB7307F10C03184601F0EBFB00BFDB
:102870001037BD4680BD00BF80B485B000AF786022
:102880000023FB607A6813461B019B1ADB001A4683
:102890000A4BA3FB0213D21A520813449B08BB60D5
:1028A000FB680133FB60FA68BB689A4200D8F7E71F
:1028B00000BF1437BD4680BC704700BF2549922435
:1028C00080B582B000AF78607B684FF47A7202FB0B
:1028D00003F31846FFF7D0FF00BF0837BD4680BDA1
:1028E00080B500AF174B9B7A002B25D0164A164BAC
:1028F0001B6923F0060313610120FFF7C9FA00BF2B
:102900003120FFF7A7FB0346002BF9D00120FFF78A
:10291000D1FA00BF3920FFF79DFB0346002BF9D009
:102920000220FFF7D7FA00BFFFF7F0FA0346082BA3
:10293000FAD10448FEF73CFD4FF4802001F062FB21
:1029400000BF80BD1C02002000ED00E080B500AF9C
:10295000024800F093FC00BF80BD00BF1C020020B5
:1029600080B584B000AF786039600023FB733B68AA
:102970005B78092B39D801A252F823F0CD29000841
:10298000E1290008EB290008D7290008EB290008F5
:10299000AF290008A5290008EB290008C329000871
:1029A000B92900083968786800F036F922E03968FA
:1029B000786800F005FA1DE03968786800F03EFAA2
:1029C00018E03968786800F0B3FA13E0396878687D
:1029D00000F0DEFA0EE03968786800F003FB09E0E9
:1029E0003968786800F06AFB04E03968786800F0BC
:1029F000D5FB00BFFB7B18461037BD4680BD00BF2E
:102A000080B584B000AF786039600023FB737B68C9
:102A100093F81231032B1BD13B689B88DBB2012B4F
:102A200011D87B68D3F8E4359B6839687868984793
:102A30003B68DB88002B10D1FB7B002B0DD1786825
:102A400002F034F809E03968786800F0A7FB04E088
:102A50003968786800F0A2FB00E000BFFB7B1846F5
:102A60001037BD4680BD00BF80B584B000AF786030
:102A700039600023FB733B689B88BB733B685B78C2
:102A8000012B39D0032B02D0002B6CD0BDE07B682A
:102A900093F81231022B02D0032B0CD025E0BB7B24
:102AA000002B27D0BB7B802B24D0BB7B19467868BA
:102AB00001F0BAFC1EE03B685B88002B0AD1BB7BAF
:102AC000002B07D0BB7B802B04D0BB7B19467868DA
:102AD00001F0AAFC7B68D3F8E4359B683968786814
:102AE0009847786801F0E2FF05E03968786800F0FF
:102AF00055FB00E000BF88E07B6893F81231022BA1
:102B000002D0032B0CD025E0BB7B002B27D0BB7B56
:102B1000802B24D0BB7B1946786801F085FC1EE031
:102B20003B685B88002B1CD1BB7B002B0ED0BB7B92
:102B3000802B0BD0BB7B1946786801F0B1FC7B6819
:102B4000D3F8E4359B68396878689847786801F06D
:102B5000ADFF06E03968786800F020FB02E000BFB6
:102B600053E000BF51E07B6893F81231022B02D092
:102B7000032B0CD042E0BB7B002B44D0BB7B802BD3
:102B800041D0BB7B1946786801F04EFC3BE0BB7B33
:102B90005BB2002B15DABB7B03F07F02796813462A
:102BA0009B001344DB000B4403F58F731B78002B51
:102BB00003D0184B01221A601AE0164B00221A604B
:102BC00016E0BB7B5BB2002B12DBBA7B7968134645
:102BD0009B001344DB000B4403F276331B78002B7D
:102BE00003D00C4B01221A6002E00A4B00221A604B
:102BF00002220849786801F011FF05E03968786819
:102C000000F0CCFA00E000BF00BFFB7B1846103795
:102C1000BD4680BDF401002080B584B000AF78606F
:102C200039603B685B881B0A9BB2013B062B00F2B4
:102C3000A98001A252F823F0552C0008852C000829
:102C4000AD2C0008852D0008852D0008712D000889
:102C50007B2D00087B68D3F8EC351B687A68927886
:102C600007F10A0110469847F8603B68DB88402B63
:102C700005D07B6893F81231012B40F0888008233F
:102C80007B8184E07B68D3F8E4359B6A7A6892782C
:102C900007F10A0110469847F860FB6801330222E9
:102CA0001A707B68FA68C3F8F02571E03B685B88AE
:102CB000DBB2052B56D801A252F823F0D52C000820
:102CC000ED2C0008052D00081D2D0008352D0008ED
:102CD0004D2D00087B68D3F8EC355B687A689278F4
:102CE00007F10A0110469847F86040E07B68D3F886
:102CF000EC359B687A68927807F10A01104698478C
:102D0000F86034E07B68D3F8EC35DB687A68927859
:102D100007F10A0110469847F86028E07B68D3F86D
:102D2000EC351B697A68927807F10A0110469847DA
:102D3000F8601CE07B68D3F8EC355B697A689278C0
:102D400007F10A0110469847F86010E07B68D3F855
:102D5000EC359B697A68927807F10A01104698472A
:102D6000F86004E03968786800F018FA25E00FE0B0
:102D70003968786800F012FA1FE03968786800F066
:102D80000DFA1AE03968786800F008FA15E000BF1B
:102D90007B89002B11D03B68DB88002B0DD03B6872
:102DA000DA887B89934228BF13469BB27B817B895B
:102DB0001A46F968786801F031FE1037BD4680BDCB
:102DC00080B584B000AF786039603B689B88002B89
:102DD0002CD13B68DB88002B28D13B685B88DBB2B9
:102DE00003F07F03FB737B6893F81231032B04D14C
:102DF0003968786800F0D2F91CE07B68FA7B83F8C8
:102E00001421FB7B1946786801F0A0FB786801F07B
:102E10004DFEFB7B002B04D07B68022283F812213D
:102E200008E07B68012283F8122103E039687868A2
:102E300000F0B4F900BF1037BD4680BD80B582B048
:102E400000AF786039603B685B88DAB2374B1A7044
:102E5000364B1B78012B04D93968786800F09EF94D
:102E60005FE07B6893F81231022B02D0032B1BD05A
:102E700052E02E4B1B78002B12D02C4B1A787B681B
:102E800083F810217B68032283F81221274B1B78DB
:102E900019467868FEF710FF786801F007FE40E0F9
:102EA000786801F003FE3CE0204B1B78002B12D128
:102EB0007B68022283F812211C4B1A787B6883F806
:102EC00010211A4B1B7819467868FEF70DFF7868B9
:102ED00001F0ECFD25E07B6893F81021134B1B7883
:102EE0009A4215D07B6893F8103119467868FEF73E
:102EF000FBFE0E4B1A787B6883F810210B4B1B7876
:102F000019467868FEF7D8FE786801F0CFFD08E032
:102F1000786801F0CBFD04E03968786800F03EF98C
:102F200000BF00BF0837BD4680BD00BF00020020C3
:102F300080B582B000AF786039603B68DB88012BD8
:102F400004D03968786800F029F91BE07B6893F8B1
:102F50001231022B02D0032B06D00EE001220B49C6
:102F6000786801F05BFD0DE07B6803F58873012252
:102F70001946786801F052FD04E03968786800F07D
:102F80000DF900BF00BF0837BD4680BDF801002025
:102F900080B582B000AF786039607B6893F81231F9
:102FA000023B012B13D80E4B01221A607B68D3F829
:102FB0001831002B05D00A4B1B6843F00203084A66
:102FC000136002220649786801F028FD04E03968A0
:102FD000786800F0E3F800BF00BF0837BD4680BD49
:102FE000FC01002080B584B000AF78603960002318
:102FF000FB733B685B88012B0ED17B680122C3F811
:1030000018217B68D3F8E4359B683968786898475D
:10301000786801F04BFD4BE03B685B88022B47D1A1
:103020003B689B88DBB2002B42D17B681B695B68E5
:10303000BB603B689B881B0A9BB2FB73FB7B013B1D
:10304000042B2BD801A252F823F000BF61300008F6
:103050006D30000879300008853000089130000894
:103060003B7A012262F306133B7217E03B7A02229D
:1030700062F306133B7211E03B7A032262F30613FC
:103080003B720BE03B7A042262F306133B7205E0CD
:103090003B7A052262F306133B7200BF064ABB6807
:1030A00013607B68012283F81621786801F0FEFC2A
:1030B00000BF1037BD4680BD1008002080B582B02B
:1030C00000AF786039607B6893F81231023B012BC6
:1030D00012D83B685B88012B13D17B680022C3F8B0
:1030E00018217B68D3F8E4359B683968786898477D
:1030F000786801F0DBFC04E03968786800F04EF88D
:1031000000E000BF00BF0837BD4680BD80B483B07B
:1031100000AF786039607B6893F8CC253B681A7003
:103120007B6893F8CD253B685A707B6893F8CE3561
:103130009AB27B6893F8CF359BB21B029BB21344C3
:103140009AB23B685A807B6893F8D0359AB27B6814
:1031500093F8D1359BB21B029BB213449AB23B68E1
:103160009A807B6893F8D2359AB27B6893F8D3350E
:103170009BB21B029BB213449AB23B68DA803B6855
:10318000DB881A467B68C3F840217B68012283F8FC
:10319000112100BF0C37BD4680BC704780B582B09E
:1031A00000AF786039608021786801F03DF9002136
:1031B000786801F039F97868FEF7C2F800BF08377F
:1031C000BD4680BD80B586B000AFF860B9607A605A
:1031D0000023FB75FB68002B33D0F86800F036F84D
:1031E000034601339BB25B009AB27B681A80FB7D79
:1031F0005A1CFA751A46BB6813447A681288D2B210
:103200001A70FB7D5A1CFA751A46BB6813440322D8
:103210001A7012E0FB7D5A1CFA751A46BB681A44F4
:10322000FB68591CF9601B781370FB7D5A1CFA75FA
:103230001A46BB68134400221A70FB681B78002BE7
:10324000E8D100BF1837BD4680BD00BF80B485B04F
:1032500000AF78600023FB7305E0FB7B0133FB7359
:103260007B6801337B607B681B78002BF5D1FB7B8F
:1032700018461437BD4680BC704700BF80B586B085
:1032800000AF786000237B617868FDF793FA03460E
:10329000002B00F0B6807868FDF79EFA03463B618C
:1032A0003B69002B01D10023ACE0BB7C03F0080399
:1032B000DBB2002B06D0786800F04CFA02467B693E
:1032C00013437B61BB7C03F00403DBB2002B06D00D
:1032D000786800F071F902467B6913437B613B7C9F
:1032E00003F00203DBB2002B09D00023FB603B7B21
:1032F00043F002033B737B68DB68FA685A61FB7C2E
:1033000023F07F03DBB2002B06D0786800F0B6F81C
:1033100002467B6913437B617B7C03F00803DBB2CD
:10332000002B06D0786800F0E9F802467B69134369
:103330007B613B7C03F00803DBB2002B06D078688E
:1033400000F0B0FA02467B6913437B613B7C03F0DB
:103350001003DBB2002B06D0786800F0BDFA0246FD
:103360007B6913437B617B7C03F01003DBB2002B92
:1033700006D0786800F0A4FB02467B6913437B61AA
:103380007B7C03F02003DBB2002B06D0786800F0D2
:1033900027FC02467B6913437B61BB7C03F010036F
:1033A000DBB2002B06D0786800F056FC02467B6941
:1033B00013437B61BB7C03F02003DBB2002B06D000
:1033C000786800F063FC02467B6913437B61FB7CF9
:1033D00003F04003DBB2002B06D0786800F016F84B
:1033E00002467B6913437B613B7C03F00403DBB241
:1033F000002B06D0786800F023F802467B6913435F
:103400007B617B6918461837BD4680BD80B584B0A6
:1034100000AF7860094B1B685B6A786898470023A7
:10342000FB60FB7B43F04003FB737B68DB68FA685F
:103430005A61012318461037BD4680BD6001002047
:1034400080B584B000AF78607B68DB685B68FB6048
:103450003B7B03F00403DBB2002B04D0064B1B685C
:103460009B6A786898477B68DB68FA685A60012332
:1034700018461037BD4680BD6001002080B586B07B
:1034800000AF78607B689B7A002B11D07B6803F5D6
:1034900086731B68FB603B7B6FF341033B733B7B95
:1034A0006FF300033B737B68D3F80C31FA681A6042
:1034B00000233B613B7C43F001033B747B681B6949
:1034C0007A68126951683A69D2430A405A600A4BD5
:1034D0001B689B697868984700237B61FB7D43F0FC
:1034E0008003FB757B68DB687A695A6101231846A3
:1034F0001837BD4680BD00BF6001002080B586B092
:1035000000AF78600023FB727B6893F81231FB7286
:10351000274B1B685B69786898477B681B699B68C9
:10352000FB6000237B617B7D43F008037B757B6838
:10353000DB687A695A617B689B7A002B32D03B7BCF
:1035400003F00103DBB2002B2CD07B6893F815311C
:10355000012B27D1FB7ADBB2032B23D100233B6164
:103560003B7C43F001033B747B68D3F80C317A68F1
:10357000D2F80C2111683A690A431A603B7C43F087
:1035800002033B747B68D3F80C317A68D2F80C21C3
:1035900011683A690A431A60064A064B1B6943F0F0
:1035A00006031361012318461837BD4680BD00BFCE
:1035B0006001002000ED00E080B586B000AF7860CB
:1035C00000233B610023BB607868FDF7A3FE7861B0
:1035D000B4E07B6903F00103002B00F0A9803B6994
:1035E000DBB21946786800F06BFB0346BB603B7AA0
:1035F00003F00103DBB2002B32D001223B6902FA57
:1036000003F3FB607B681B697A681269516BFA6887
:10361000D2430A405A630023BB603B7A43F0010364
:103620003B727A683B6904339B0013449B68BA6819
:103630009A60474B1B685B683A69D2B2114678685A
:1036400098477B68DB78012B0AD13B69002B07D1B7
:103650007B6893F81131042B02D17868FDF770FE76
:103660003B7A03F00803DBB2002B0DD00023BB60D4
:103670003B7A43F008033B727A683B6904339B0052
:1036800013449B68BA689A603B7A03F01003DBB27C
:10369000002B0DD00023BB603B7A43F010033B723C
:1036A0007A683B6904339B0013449B68BA689A604C
:1036B0003B7A03F04003DBB2002B0DD00023BB604C
:1036C0003B7A43F040033B727A683B6904339B00CA
:1036D00013449B68BA689A603B7A03F00203DBB23A
:1036E000002B0DD00023BB603B7A43F002033B72FA
:1036F0007A683B6904339B0013449B68BA689A60FC
:103700003B7A23F07F03DBB2002B11D03969786854
:1037100000F064F90023BB603B7A43F080033B7206
:103720007A683B6904339B0013449B68BA689A60CB
:103730003B6901333B617B695B087B617B69002BE3
:103740007FF447AF012318461837BD4680BD00BF40
:103750006001002080B586B000AF786000233B6137
:103760000023FB607868FDF7A5FD78618FE07B6939
:1037700003F00103002B00F084803B69DBB21946A3
:103780007868FDF7ADFD0346FB603B7B03F001036A
:10379000DBB2002B48D00023FB603B7B43F00103EE
:1037A0003B737A683B6914339B0013445B68FA6887
:1037B0009A607B68DB78012B1FD17A683B691433F0
:1037C0009B0013445B681B69BB6079683A691346C8
:1037D0009B001344DB000B4403F55F731B68BA685E
:1037E000C2F31202991A78683A6913469B0013448F
:1037F000DB00034403F563731960294B1B681B68E6
:103800003A69D2B21146786898477B68DB78012B19
:103810000AD13B69002B07D17B6893F81131052B46
:1038200002D17868FDF78CFD3B7B03F00203DBB22D
:10383000002B0DD00023FB603B7B43F002033B7366
:103840007A683B6914339B0013445B68FA689A609A
:103850003B7B03F00803DBB2002B12D0104B1B683C
:103860009B68786898470023FB603B7B43F0080324
:103870003B737A683B6914339B0013445B68FA68B6
:103880009A603B6901333B617B695B087B617B69C3
:10389000002B7FF46CAF012318461837BD4680BD5E
:1038A0006001002080B584B000AF7860094B1B68D0
:1038B000DB68786898470023FB603B7B43F0080394
:1038C0003B737B68DB68FA685A610123184610373E
:1038D000BD4680BD6001002080B586B000AF786035
:1038E00000233B613B7C43F010033B747B68DB6847
:1038F0007A68D26891693A69D2430A409A617B68D2
:10390000DB681B6AFB603B7BC3F30303DBB21A4635
:1039100013469B001344DB0003F55C737A68134481
:1039200004337B61BB7BC3F34303DBB2013B052B59
:1039300044D801A252F823F0BD39000851390008DB
:10394000BD390008BD390008BD39000899390008A3
:10395000BA8947F6F07313409BB2002B30D07B69D5
:10396000D968BB89C3F30A139BB21A467868FCF77F
:10397000C1FC7B69DB68BA89C2F30A1292B21A44AD
:103980007B69DA607B699B69BA89C2F30A1292B2D9
:103990001A447B699A6113E07B6803F2CC530822D6
:1039A00019467868FCF7A6FC7B699B69BA89C2F363
:1039B0000A1292B21A447B699A6102E000BF00E0E9
:1039C00000BF7B68DB687A68D26891693A690A430C
:1039D0009A61012318461837BD4680BD80B586B070
:1039E00000AF7860396000237B610023BB603A68D8
:1039F00013469B001344DB0003F58C737A68134471
:103A00000433FB60FB685A69FB689B69D31A7B61CE
:103A1000FB689A687B699A4202D2FB689B687B616B
:103A20007B6903339B083B617A683B6804339B00E6
:103A300013449B689B69BB602EE0FB685A69FB6876
:103A40009B69D31A7B61FB689A687B699A4202D2B0
:103A5000FB689B687B617B6903339B083B61FB6868
:103A6000D9683B68DAB27B699BB27868FCF708FCDE
:103A7000FB68DA687B691A44FB68DA60FB689A695C
:103A80007B691A44FB689A617A683B6804339B003F
:103A900013449B689B69BB603B891A463B699A4209
:103AA00009D9FB689A69FB685B699A4203D2FB6893
:103AB0005B69002BC1D1012318461837BD4680BD74
:103AC00080B58AB000AF786000233B6100233B6281
:103AD0000023FB610023BB6100237B610023FB60AB
:103AE0003B7C43F001033B747B681B697A68126975
:103AF00051683A69D2430A405A6000217868FCF75D
:103B0000B1FD00237B6212E07A687B6A04339B007C
:103B100013449B68FF229A607A687B6A14339B0087
:103B200013445B68FF229A607B6A01337B627B6887
:103B30005B781A467B6A9A42E6D87B681B694FF02D
:103B4000FF329A6101233B8401237B847B681B69DC
:103B50003A6ADA613B7F43F008033B773B7F43F0EF
:103B600001033B773B7F43F002033B777B681B6994
:103B7000FA695A613B7E43F001033B763B7E43F09A
:103B800008033B763B7E43F002033B767B681B6970
:103B9000BA691A617B681B691B687B61BB8A6FF31A
:103BA0000A13BB827B681B697A691A607868FDF723
:103BB000C7FB0023FB607B7B43F010037B737B68B8
:103BC000DB68FA685A61054B1B681B69786898477F
:103BD000012318462837BD4680BD00BF6001002084
:103BE00080B584B000AF78607868FCF7D1FF7B685F
:103BF000DB68DB68BB607868FCF7A6FF0346032B35
:103C00000CD17B6800229A707B684FF400729A8016
:103C10007B7A092262F385037B720AE07B680122CA
:103C20009A707B6840229A807B7A052262F3850332
:103C30007B727B68DB68BA68DA600023FB607B7BA1
:103C400043F020037B737B68DB68FA685A610123C9
:103C500018461037BD4680BD80B584B000AF78608F
:103C60000023FB60084B1B68DB6978689847BB7BC7
:103C700043F01003BB737B68DB68FA685A61012369
:103C800018461037BD4680BD6001002080B584B065
:103C900000AF78600023FB60084B1B681B6A7868E4
:103CA0009847BB7B43F02003BB737B68DB68FA68F3
:103CB0005A61012318461037BD4680BD60010020BF
:103CC00080B487B000AF78600B46FB707B681B69DF
:103CD0001B697B617B681B695B6B3B61FB783A69A5
:103CE00022FA03F3DB01DBB27A6913437B61FB78D1
:103CF0007A6804339B0013449B689A687B6913407D
:103D0000FB60FB6818461C37BD4680BC704700BF8F
:103D100080B582B000AF78607B682E4A93420AD1AA
:103D200001214FF48050FEF777F900214FF48050C5
:103D3000FEF772F949E07B68274A93420AD10121D4
:103D40004FF48040FEF74AF900214FF48040FEF71F
:103D500045F93AE07B68214A93420AD101214FF4A8
:103D60000040FEF73BF900214FF40040FEF736F922
:103D70002BE07B681A4A93420AD101214FF400508C
:103D8000FEF74AF900214FF40050FEF745F91CE018
:103D90007B68144A93420AD101214FF48010FEF748
:103DA0003BF900214FF48010FEF736F90DE07B68F7
:103DB0000D4A934209D101214FF40010FEF72CF96E
:103DC00000214FF40010FEF727F900BF0837BD4669
:103DD00080BD00BF0030014000380040003C004082
:103DE00000340140005001400054014080B485B0CF
:103DF00000AF786039600023FB817B681B88FB8102
:103E0000FB8903F44153FB813B681A883B685B885C
:103E100013439AB23B689B8813439AB23B68DB8892
:103E200013439AB23B681B8913439AB23B685B8980
:103E300013439AB23B689B8913439AB23B68DB8970
:103E400013439AB2FB891343FB817B68FA891A807A
:103E50007B689B8B9BB223F400639AB27B689A8346
:103E60003B681A8A7B681A8200BF1437BD4680BC43
:103E7000704700BF80B483B000AF78600B46FB7022
:103E8000FB78002B08D07B681B889BB243F0400373
:103E90009AB27B681A8007E07B681B889BB223F08C
:103EA00040039AB27B681A8000BF0C37BD4680BCC5
:103EB000704700BF80B483B000AF78607B689B8997
:103EC0009BB218460C37BD4680BC704780B483B0A7
:103ED00000AF78600B467B807B687A889A8100BF50
:103EE0000C37BD4680BC704780B485B000AF7860A9
:103EF0000B467B800023FB737B681B899AB27B880F
:103F000013409BB2002B02D00123FB7301E000237E
:103F1000FB73FB7B18461437BD4680BC704700BF5F
:103F200080B485B000AF78600023FB60344BFB6049
:103F30007B689B79002B4FD03149314B1A687B68E5
:103F40001B68DB4313400B602D492D4B5A687B687F
:103F50001B68DB4313404B607B681B791A46FB6888
:103F60001344FB60FB68FA6811687A6812680A43B8
:103F70001A602349224B9A687B681B68DB43134015
:103F80008B601F491E4BDA687B681B68DB4313405C
:103F9000CB607B685B79102B0ED11949184B9A685E
:103FA0007B681B6813438B601549154BDA687B6887
:103FB0001B681343CB601DE0114BFB607B685B7992
:103FC0001A46FB681344FB60FB68FA6811687A685C
:103FD00012680A431A600DE07B681B791A46FB6879
:103FE0001344FB60FB68FA6811687A681268D24370
:103FF0000A401A6000BF1437BD4680BC704700BF3E
:10400000003C014080B483B000AF7860034A7B6815
:10401000536100BF0C37BD4680BC7047003C014077
:1040200080B483B000AF7860054A7B6843F0BF631B
:1040300043F40033D36000BF0C37BD4680BC7047EB
:1040400000ED00E080B485B000AF78600023FB7322
:104050000023BB730F237B737B68DB78002B38D086
:10406000264BDB68DB4303F4E0631B0AFB73FB7B3B
:10407000C3F10403BB737A7BFB7B42FA03F37B73CC
:104080007B685B781A46BB7B02FA03F3FB737B68A1
:104090009A787B7B1340DAB2FB7B1343FB73FB7B89
:1040A0001B01FB73164A7B681B781344FA7B83F869
:1040B0000023134A7B681B785B09DBB218467B68D8
:1040C0001B7803F01F03012101FA03F342F82030AB
:1040D0000FE00B497B681B785B09DBB218467B68F5
:1040E0001B7803F01F0301229A4000F1200341F8DE
:1040F000232000BF1437BD4680BC704700ED00E0B0
:1041000000E100E080B584B000AF78600B46FB7042
:10411000FB7819467868FCF719F97B68012283F867
:1041200012217B68002283F814210023FB6024E025
:10413000FA6813469B001344DB0003F58C737A681E
:1041400013440433BB60BB6801225A70FB68DAB2C7
:10415000BB681A70FB689AB2BB68DA80BB68002241
:10416000DA70BB6840229A60BB680022DA60BB68E4
:1041700000225A61FB680133FB607B685B781A465A
:10418000FB689A42D4D80023FB6024E0FA68134607
:104190009B001344DB0003F55C737A68134404331B
:1041A000BB60BB6800225A70FB68DAB2BB681A7049
:1041B000FB689AB2BB68DA80BB680022DA70BB6821
:1041C00040229A60BB680022DA60BB6800225A6114
:1041D000FB680133FB607B685B781A46FB689A4298
:1041E000D4D87868FCF722FA7868FCF76BF90021DC
:1041F0007868FCF7A1FA7868FCF720FB7868FCF790
:10420000FBF900BF1037BD4680BD00BF80B584B04C
:1042100000AF7860084611461A460346FB700B460D
:104220003B801346BB70FB785BB2002B0DDAFB784A
:1042300003F07F0213469B001344DB0003F58C73ED
:104240007A6813440433FB600CE0FB7803F07F02D0
:1042500013469B001344DB0003F55C737A68134438
:104260000433FB60FB7803F07F03DAB2FB681A705B
:10427000FB78DB09DBB21A46FB685A703A88FB68A8
:104280009A60FB68BA78DA70FB685B78002B04D020
:10429000FB681B789AB2FB68DA80BB78022B02D1EC
:1042A000FB6800221A71F9687868FCF7ABFC002300
:1042B00018461037BD4680BD80B584B000AF786029
:1042C0000B46FB70FB785BB2002B0DDAFB7803F03A
:1042D0007F0213469B001344DB0003F58C737A685E
:1042E00013440433FB600CE0FB7803F07F021346B9
:1042F0009B001344DB0003F55C737A6813440433BA
:10430000FB60FB7803F07F03DAB2FB681A70FB787E
:10431000DB09DBB21A46FB685A70F9687868FCF76B
:10432000DFFC002318461037BD4680BD80B586B03F
:1043300000AFF8607A601A460B46FB7213463B8169
:10434000FB7A03F07F0213469B001344DB0003F566
:104350005C73FA68134404337B617B697A68DA60C2
:104360003A897B695A617B6900229A617B690022E4
:104370005A70FB7A03F07F03DAB27B691A70FB682C
:10438000DB78012B02D17A687B691A617B691B7823
:10439000002B04D17969F868FCF726FE03E07969FF
:1043A000F868FCF7E1FC002318461837BD4680BDCD
:1043B00080B586B000AFF8607A603B600B46FB7258
:1043C000FB7A03F07F0213469B001344DB0003F5E6
:1043D0008C73FA68134404337B617B6901225A7041
:1043E000FB7A03F07F03DAB27B691A707B697A6823
:1043F000DA607A687B691A617B6900229A617B695D
:104400003A685A617B691B78002B04D17969F86896
:10441000FCF7EAFD03E07969F868FCF7A5FC0023E6
:1044200018461837BD4680BD80B584B000AF7860AF
:104430000B46FB70FB785BB2002B0DDAFB7803F0C8
:104440007F0213469B001344DB0003F58C737A68EC
:1044500013440433FB600AE0FA7813469B001344CC
:10446000DB0003F55C737A6813440433FB60FB687C
:1044700001229A70FB7803F07F03DAB2FB681A70AE
:10448000FB78DB09DBB21A46FB685A70F96878687A
:10449000FCF794FE002318461037BD4680BD00BFD0
:1044A00080B584B000AF78600B46FB70FB785BB2E0
:1044B000002B0DDAFB7803F07F0213469B001344B8
:1044C000DB0003F58C737A6813440433FB600AE065
:1044D000FA7813469B001344DB0003F55C737A689B
:1044E00013440433FB60FB6800229A70FB7803F0EE
:1044F0007F03DAB2FB681A70FB78DB09DBB21A467D
:10450000FB685A70F9687868FCF79AFE0023184631
:104510001037BD4680BD00BF80B582B000AF786067
:104520000B46FB70FB785BB2002B07DAFB7803F0DD
:104530007F0319467868FCF795F802E07868FCF785
:10454000CBF8002318460837BD4680BD80B485B03F
:1045500000AF78600B46FB700023FB60FB7803F034
:104560007F03DAB2BB8962F30A13BB817B681B69E4
:104570007A6812691168FA680A431A6000BF143732
:10458000BD4680BC704700BF80B584B002AF786084
:10459000084611461A4603467B800B467B7013463D
:1045A0003B707B88002B0ED0786800F021F83878BB
:1045B0007A7879883B7D01933B7C00930346786849
:1045C00000F02EF800E000BF0837BD4680BD00BFF8
:1045D00080B483B000AF78607B6803F13F4303F59C
:1045E0007E039B0A9BB218460C37BD4680BC7047C1
:1045F00080B582B000AF78607868FFF7E9FF0346C6
:104600001A46012303FA02F1044A044B1B6B0B43C5
:10461000136300BF0837BD4680BD00BF00380240AD
:1046200080B584B000AF7860084611461A4603464C
:104630007B800B467B7013463B707868FFF7C8FFA2
:104640000346BB730023FB7368E07A88FB7B42FA66
:1046500003F303F00103002B5CD0BB7BBA7B33492F
:1046600031F8122090B2FA7B012101FA02F292B2E3
:1046700001460A4392B291B22C4A22F813107B6889
:10468000DB68FA7B5200032101FA02F2D2431340A5
:10469000397EFA7B520001FA02F21A437B68DA6033
:1046A0007B681A68FB7B5B00032101FA03F3DB43A1
:1046B00013407978FA7B520001FA02F21A437B68C0
:1046C0001A607B78012B02D07B78022B23D17B6888
:1046D0005B68FA7B012101FA02F292B2D2431A40DE
:1046E0003978FB7B01FA03F39BB21A437B685A606B
:1046F0007B689A68FB7B5B00032101FA03F3DB43D1
:104700001340397FFA7B520001FA02F21A437B68A8
:104710009A6000E000BFFB7B0133FB73FB7B0F2B38
:1047200093D900BF1037BD4680BD00BF04020020F2
:1047300080B584B000AF78600023FB7300F086F88A
:104740007B685A787B681B781343DAB27B68DB7826
:104750001343DAB27B681B791343DAB27B689B7828
:104760001343DBB2FB7307F10F030122202118462C
:1047700000F004F800BF1037BD4680BD80B582B0A0
:1047800000AF78600B46FB7013463B803B88012BE3
:1047900003D9FB7843F04003FB7008210E48FDF776
:1047A000CFFEFB78184600F0EDF80AE07B681B7836
:1047B000184600F0E7F83B88013B3B807B680133FB
:1047C0007B603B88002BF1D108210348FDF7AAFE4E
:1047D00000BF0837BD4680BD0010024080B582B0E2
:1047E00000AF78600B46FB7013463B803B88012B83
:1047F00004D9FB7863F03F03FB7003E0FB7863F0C0
:104800007F03FB7008211048FDF79AFEFB781846DD
:1048100000F0B8F80CE0002000F0B4F803461A46A7
:104820007B681A703B88013B3B807B6801337B606F
:104830003B88002BEFD108210348FDF773FE00BF32
:104840000837BD4680BD00BF0010024080B588B06B
:1048500000AF01214FF48050FDF7A2FB01210120A0
:10486000FDF762FB01211020FDF75EFB0121102006
:10487000FDF75AFB01211020FDF756FB052205210B
:104880003D48FDF76BFE052206213B48FDF766FE1D
:10489000052207213848FDF761FE02233B770023FC
:1048A000BB770223FB7702237B772023BB6107F1D1
:1048B000180319463048FDF7A7FD8023BB6107F1B7
:1048C000180319462C48FDF79FFD4023BB6107F1F3
:1048D000180319462848FDF797FD2848FFF718FAEE
:1048E0000023BB8000233B8100237B810023BB810D
:1048F0004FF40073FB8108233B8200237B82072354
:10490000BB824FF48273FB803B1D19461B48FFF7A7
:104910006DFA01211948FFF7ADFA0823BB610123A5
:104920003B770023BB7702237B7707F118031946F7
:104930001348FDF769FD08211148FDF7F3FD012338
:10494000BB6100233B770023BB7702237B770023E7
:10495000FB7707F1180319460948FDF755FD0223B7
:10496000BB6107F1180319460548FDF74DFD00BF6F
:104970002037BD4680BD00BF00000240003001402E
:104980000010024080B582B000AF0346FB711F4BA0
:104990004FF480521A600BE01C4B1B685A1E1B49D7
:1049A0000A60002B04D100F035F80346DBB229E0A1
:1049B00002211748FFF798FA0346002BECD0FB7949
:1049C0009BB219461248FFF781FA104B4FF4805200
:1049D0001A600BE00D4B1B685A1E0C490A60002B35
:1049E00004D100F017F80346DBB20BE001210848C0
:1049F000FFF77AFA0346002BECD00548FFF75AFA86
:104A00000346DBB218460837BD4680BDB80100201A
:104A10000030014080B400AFFEE700BF80B586B033
:104A200000AFF860B9601346FB800023FB75FA887D
:104A3000FB68C3F83C21FA88FB68C3F83821FB689F
:104A4000022283F81121FB88BA680021F868FFF779
:104A5000AFFCFB7D18461837BD4680BD80B586B0DB
:104A600000AFF860B9601346FB800023FB75FB883C
:104A7000BA680021F868FFF79BFCFB7D18461837E1
:104A8000BD4680BD80B586B000AFF860B960134602
:104A9000FB800023FB75FB88BA680021F868FFF7EC
:104AA00045FCFB7D18461837BD4680BD80B584B0F7
:104AB00000AF78600023FB737B68042283F8112128
:104AC0000023002200217868FFF772FC7868FCF769
:104AD00037FCFB7B18461037BD4680BD80B584B0DF
:104AE00000AF78600023FB737B68052283F81121F7
:104AF0000023002200217868FFF718FC7868FCF793
:104B00001FFCFB7B18461037BD4680BD544D205519
:104B10005342204849442064657669636520696E84
:104B2000204853206D6F646500000000544D2055EF
:104B30005342204849442064657669636520696E64
:104B4000204653206D6F64650000000053544D698A
:104B500063726F656C656374726F6E696373000076
:104B600030303030303030303031314200000000F1
:104B700030303030303030303031314300000000E0
:104B800048494420436F6E666967000048494420E5
:0A4B9000496E74657266616365008A
:104B9A00CD150008E5150008051600084D16000891
:104BAA00651600081D1600083516000805170008C6
:104BBA00351700085D17000800000000000000001B
:104BCA00E5180008000000000000000000000000D6
:104BDA0000000000C118000809022200010100E0DB
:104BEA00320904000001030000000921110100013B
:104BFA0022C5000705810304000A00000501090611
:104C0A00A1018501050719E029E7150025017501AC
:104C1A0095088102950175088103950675081500A6
:104C2A0025650507190029658100C005010902A14A
:104C3A00010901A1008502050919012903150025A9
:104C4A000195037501810295017505810305010925
:104C5A0030093109381581257F750895038106C009
:104C6A00C005010905A101A100850305091901294A
:104C7A0010150025019510750181020501093009F9
:104C8A0031093209331581257F750895048102C0DF
:104C9A00C005010905A101A1008504050919012919
:104CAA0010150025019510750181020501093009C9
:104CBA0031093209331581257F750895048102C0AF
:104CCA00C0000000DD190008A91A000871190008BF
:104CDA008D1C0008E91B00085D1C00082D1C00083B
:104CEA00111D0008311D0008511D0008751D00081E
:104CFA0034010020A1220008C52200082923000847
:104D0A00E92200085123000891230008CD23000856
:104D1A001201000200000040830410570002010241
:104D2A00030100000A060002000000400100000022
:104D3A0004030904007A030A0000000000000000CE
:0C4D4A0001020304060708090010000025
:0400000508000000EF
:00000001FF
